{
  "contractName": "Dex",
  "abi": [
    {
      "inputs": [],
      "stateMutability": "nonpayable",
      "type": "constructor"
    },
    {
      "anonymous": false,
      "inputs": [
        {
          "indexed": false,
          "internalType": "uint256",
          "name": "tradeId",
          "type": "uint256"
        },
        {
          "indexed": false,
          "internalType": "uint256",
          "name": "orderId",
          "type": "uint256"
        },
        {
          "indexed": true,
          "internalType": "bytes32",
          "name": "ticker",
          "type": "bytes32"
        },
        {
          "indexed": true,
          "internalType": "address",
          "name": "trader1",
          "type": "address"
        },
        {
          "indexed": true,
          "internalType": "address",
          "name": "trader2",
          "type": "address"
        },
        {
          "indexed": false,
          "internalType": "uint256",
          "name": "amount",
          "type": "uint256"
        },
        {
          "indexed": false,
          "internalType": "uint256",
          "name": "price",
          "type": "uint256"
        },
        {
          "indexed": false,
          "internalType": "uint256",
          "name": "date",
          "type": "uint256"
        }
      ],
      "name": "NewTrade",
      "type": "event"
    },
    {
      "inputs": [],
      "name": "admin",
      "outputs": [
        {
          "internalType": "address",
          "name": "",
          "type": "address"
        }
      ],
      "stateMutability": "view",
      "type": "function",
      "constant": true
    },
    {
      "inputs": [],
      "name": "nextOrderId",
      "outputs": [
        {
          "internalType": "uint256",
          "name": "",
          "type": "uint256"
        }
      ],
      "stateMutability": "view",
      "type": "function",
      "constant": true
    },
    {
      "inputs": [],
      "name": "nextTradeId",
      "outputs": [
        {
          "internalType": "uint256",
          "name": "",
          "type": "uint256"
        }
      ],
      "stateMutability": "view",
      "type": "function",
      "constant": true
    },
    {
      "inputs": [
        {
          "internalType": "bytes32",
          "name": "",
          "type": "bytes32"
        },
        {
          "internalType": "uint256",
          "name": "",
          "type": "uint256"
        },
        {
          "internalType": "uint256",
          "name": "",
          "type": "uint256"
        }
      ],
      "name": "orderBook",
      "outputs": [
        {
          "internalType": "uint256",
          "name": "id",
          "type": "uint256"
        },
        {
          "internalType": "address",
          "name": "trader",
          "type": "address"
        },
        {
          "internalType": "enum Dex.Side",
          "name": "side",
          "type": "uint8"
        },
        {
          "internalType": "bytes32",
          "name": "ticker",
          "type": "bytes32"
        },
        {
          "internalType": "uint256",
          "name": "amount",
          "type": "uint256"
        },
        {
          "internalType": "uint256",
          "name": "filled",
          "type": "uint256"
        },
        {
          "internalType": "uint256",
          "name": "price",
          "type": "uint256"
        },
        {
          "internalType": "uint256",
          "name": "date",
          "type": "uint256"
        }
      ],
      "stateMutability": "view",
      "type": "function",
      "constant": true
    },
    {
      "inputs": [
        {
          "internalType": "uint256",
          "name": "",
          "type": "uint256"
        }
      ],
      "name": "tokenList",
      "outputs": [
        {
          "internalType": "bytes32",
          "name": "",
          "type": "bytes32"
        }
      ],
      "stateMutability": "view",
      "type": "function",
      "constant": true
    },
    {
      "inputs": [
        {
          "internalType": "bytes32",
          "name": "",
          "type": "bytes32"
        }
      ],
      "name": "tokens",
      "outputs": [
        {
          "internalType": "bytes32",
          "name": "ticker",
          "type": "bytes32"
        },
        {
          "internalType": "address",
          "name": "tokenAddress",
          "type": "address"
        }
      ],
      "stateMutability": "view",
      "type": "function",
      "constant": true
    },
    {
      "inputs": [
        {
          "internalType": "address",
          "name": "",
          "type": "address"
        },
        {
          "internalType": "bytes32",
          "name": "",
          "type": "bytes32"
        }
      ],
      "name": "traderBalances",
      "outputs": [
        {
          "internalType": "uint256",
          "name": "",
          "type": "uint256"
        }
      ],
      "stateMutability": "view",
      "type": "function",
      "constant": true
    },
    {
      "inputs": [
        {
          "internalType": "bytes32",
          "name": "ticker",
          "type": "bytes32"
        },
        {
          "internalType": "enum Dex.Side",
          "name": "side",
          "type": "uint8"
        }
      ],
      "name": "getOrders",
      "outputs": [
        {
          "components": [
            {
              "internalType": "uint256",
              "name": "id",
              "type": "uint256"
            },
            {
              "internalType": "address",
              "name": "trader",
              "type": "address"
            },
            {
              "internalType": "enum Dex.Side",
              "name": "side",
              "type": "uint8"
            },
            {
              "internalType": "bytes32",
              "name": "ticker",
              "type": "bytes32"
            },
            {
              "internalType": "uint256",
              "name": "amount",
              "type": "uint256"
            },
            {
              "internalType": "uint256",
              "name": "filled",
              "type": "uint256"
            },
            {
              "internalType": "uint256",
              "name": "price",
              "type": "uint256"
            },
            {
              "internalType": "uint256",
              "name": "date",
              "type": "uint256"
            }
          ],
          "internalType": "struct Dex.Order[]",
          "name": "",
          "type": "tuple[]"
        }
      ],
      "stateMutability": "view",
      "type": "function",
      "constant": true
    },
    {
      "inputs": [],
      "name": "getTokens",
      "outputs": [
        {
          "components": [
            {
              "internalType": "bytes32",
              "name": "ticker",
              "type": "bytes32"
            },
            {
              "internalType": "address",
              "name": "tokenAddress",
              "type": "address"
            }
          ],
          "internalType": "struct Dex.Token[]",
          "name": "",
          "type": "tuple[]"
        }
      ],
      "stateMutability": "view",
      "type": "function",
      "constant": true
    },
    {
      "inputs": [
        {
          "internalType": "bytes32",
          "name": "ticker",
          "type": "bytes32"
        },
        {
          "internalType": "address",
          "name": "tokenAddress",
          "type": "address"
        }
      ],
      "name": "addToken",
      "outputs": [],
      "stateMutability": "nonpayable",
      "type": "function"
    },
    {
      "inputs": [
        {
          "internalType": "uint256",
          "name": "amount",
          "type": "uint256"
        },
        {
          "internalType": "bytes32",
          "name": "ticker",
          "type": "bytes32"
        }
      ],
      "name": "deposit",
      "outputs": [],
      "stateMutability": "nonpayable",
      "type": "function"
    },
    {
      "inputs": [
        {
          "internalType": "uint256",
          "name": "amount",
          "type": "uint256"
        },
        {
          "internalType": "bytes32",
          "name": "ticker",
          "type": "bytes32"
        }
      ],
      "name": "withdraw",
      "outputs": [],
      "stateMutability": "nonpayable",
      "type": "function"
    },
    {
      "inputs": [
        {
          "internalType": "bytes32",
          "name": "ticker",
          "type": "bytes32"
        },
        {
          "internalType": "uint256",
          "name": "amount",
          "type": "uint256"
        },
        {
          "internalType": "uint256",
          "name": "price",
          "type": "uint256"
        },
        {
          "internalType": "enum Dex.Side",
          "name": "side",
          "type": "uint8"
        }
      ],
      "name": "createLimitOrder",
      "outputs": [],
      "stateMutability": "nonpayable",
      "type": "function"
    },
    {
      "inputs": [
        {
          "internalType": "bytes32",
          "name": "ticker",
          "type": "bytes32"
        },
        {
          "internalType": "uint256",
          "name": "amount",
          "type": "uint256"
        },
        {
          "internalType": "enum Dex.Side",
          "name": "side",
          "type": "uint8"
        }
      ],
      "name": "createMarketOrder",
      "outputs": [],
      "stateMutability": "nonpayable",
      "type": "function"
    }
  ],
  "bytecode": "0x608060405234801561001057600080fd5b5033600460006101000a81548173ffffffffffffffffffffffffffffffffffffffff021916908373ffffffffffffffffffffffffffffffffffffffff160217905550613594806100616000396000f3fe608060405234801561001057600080fd5b50600436106100ea5760003560e01c80639776aacf1161008c578063aa6ca80811610066578063aa6ca80814610277578063c9630cb014610295578063d9c0c950146102b1578063f851a440146102cd576100ea565b80639776aacf1461020f5780639ead72221461022b578063a8d2021a1461025b576100ea565b806372ce957e116100c857806372ce957e146101745780637f2c6246146101a4578063813ad083146101c0578063904194a3146101de576100ea565b80630bb431b6146100ef5780632a58b3301461012657806346e9658b14610144575b600080fd5b61010960048036038101906101049190612866565b6102eb565b60405161011d98979695949392919061298f565b60405180910390f35b61012e61038a565b60405161013b9190612a0d565b60405180910390f35b61015e60048036038101906101599190612a4d565b610390565b60405161016b9190612c1b565b60405180910390f35b61018e60048036038101906101899190612c69565b6104f4565b60405161019b9190612a0d565b60405180910390f35b6101be60048036038101906101b99190612ca9565b610519565b005b6101c86116e7565b6040516101d59190612a0d565b60405180910390f35b6101f860048036038101906101f39190612cfc565b6116ed565b604051610206929190612d29565b60405180910390f35b61022960048036038101906102249190612d52565b611731565b005b61024560048036038101906102409190612d92565b61187f565b6040516102529190612dbf565b60405180910390f35b61027560048036038101906102709190612dda565b6118a3565b005b61027f611b4b565b60405161028c9190612ef8565b60405180910390f35b6102af60048036038101906102aa9190612dda565b611ca4565b005b6102cb60048036038101906102c69190612f1a565b611ebb565b005b6102d561275a565b6040516102e29190612f81565b60405180910390f35b6003602052826000526040600020602052816000526040600020818154811061031357600080fd5b906000526020600020906007020160009250925050508060000154908060010160009054906101000a900473ffffffffffffffffffffffffffffffffffffffff16908060010160149054906101000a900460ff16908060020154908060030154908060040154908060050154908060060154905088565b60055481565b60606003600084815260200190815260200160002060008360018111156103ba576103b9612909565b5b8152602001908152602001600020805480602002602001604051908101604052809291908181526020016000905b828210156104e8578382906000526020600020906007020160405180610100016040529081600082015481526020016001820160009054906101000a900473ffffffffffffffffffffffffffffffffffffffff1673ffffffffffffffffffffffffffffffffffffffff1673ffffffffffffffffffffffffffffffffffffffff1681526020016001820160149054906101000a900460ff16600181111561049157610490612909565b5b60018111156104a3576104a2612909565b5b815260200160028201548152602001600382015481526020016004820154815260200160058201548152602001600682015481525050815260200190600101906103e8565b50505050905092915050565b6002602052816000526040600020602052806000526040600020600091509150505481565b82600073ffffffffffffffffffffffffffffffffffffffff1660008083815260200190815260200160002060010160009054906101000a900473ffffffffffffffffffffffffffffffffffffffff1673ffffffffffffffffffffffffffffffffffffffff16036105be576040517f08c379a00000000000000000000000000000000000000000000000000000000081526004016105b590612ff9565b60405180910390fd5b837f44414900000000000000000000000000000000000000000000000000000000008103610621576040517f08c379a000000000000000000000000000000000000000000000000000000000815260040161061890613065565b60405180910390fd5b60018081111561063457610633612909565b5b83600181111561064757610646612909565b5b036106e05783600260003373ffffffffffffffffffffffffffffffffffffffff1673ffffffffffffffffffffffffffffffffffffffff16815260200190815260200160002060008781526020019081526020016000205410156106df576040517f08c379a00000000000000000000000000000000000000000000000000000000081526004016106d6906130d1565b60405180910390fd5b5b600060036000878152602001908152602001600020600080600181111561070a57610709612909565b5b86600181111561071d5761071c612909565b5b1461072957600061072c565b60015b600181111561073e5761073d612909565b5b815260200190815260200160002090506000808690505b8280549050821080156107685750600081115b1561146e5760006107ca848481548110610785576107846130f1565b5b9060005260206000209060070201600401548585815481106107aa576107a96130f1565b5b90600052602060002090600702016003015461278090919063ffffffff16565b905060008183116107db57826107dd565b815b90506107f2818461278090919063ffffffff16565b925061082b8186868154811061080b5761080a6130f1565b5b90600052602060002090600702016004015461279690919063ffffffff16565b85858154811061083e5761083d6130f1565b5b9060005260206000209060070201600401819055503373ffffffffffffffffffffffffffffffffffffffff1685858154811061087d5761087c6130f1565b5b906000526020600020906007020160010160009054906101000a900473ffffffffffffffffffffffffffffffffffffffff1673ffffffffffffffffffffffffffffffffffffffff168b7fdb0c486e680ba8026643e6a85f8d157b5e7bcd4b32b54d564542570a9eb204166006548989815481106108fd576108fc6130f1565b5b906000526020600020906007020160000154868b8b81548110610923576109226130f1565b5b90600052602060002090600702016005015442604051610947959493929190613120565b60405180910390a460018081111561096257610961612909565b5b88600181111561097557610974612909565b5b03610e53576109dd81600260003373ffffffffffffffffffffffffffffffffffffffff1673ffffffffffffffffffffffffffffffffffffffff16815260200190815260200160002060008d81526020019081526020016000205461278090919063ffffffff16565b600260003373ffffffffffffffffffffffffffffffffffffffff1673ffffffffffffffffffffffffffffffffffffffff16815260200190815260200160002060008c815260200190815260200160002081905550610aea610a6b868681548110610a4a57610a496130f1565b5b906000526020600020906007020160050154836127ac90919063ffffffff16565b600260003373ffffffffffffffffffffffffffffffffffffffff1673ffffffffffffffffffffffffffffffffffffffff16815260200190815260200160002060007f444149000000000000000000000000000000000000000000000000000000000081526020019081526020016000205461279690919063ffffffff16565b600260003373ffffffffffffffffffffffffffffffffffffffff1673ffffffffffffffffffffffffffffffffffffffff16815260200190815260200160002060007f4441490000000000000000000000000000000000000000000000000000000000815260200190815260200160002081905550610c058160026000888881548110610b7957610b786130f1565b5b906000526020600020906007020160010160009054906101000a900473ffffffffffffffffffffffffffffffffffffffff1673ffffffffffffffffffffffffffffffffffffffff1673ffffffffffffffffffffffffffffffffffffffff16815260200190815260200160002060008d81526020019081526020016000205461279690919063ffffffff16565b60026000878781548110610c1c57610c1b6130f1565b5b906000526020600020906007020160010160009054906101000a900473ffffffffffffffffffffffffffffffffffffffff1673ffffffffffffffffffffffffffffffffffffffff1673ffffffffffffffffffffffffffffffffffffffff16815260200190815260200160002060008c815260200190815260200160002081905550610d9a610cd7868681548110610cb657610cb56130f1565b5b906000526020600020906007020160050154836127ac90919063ffffffff16565b60026000888881548110610cee57610ced6130f1565b5b906000526020600020906007020160010160009054906101000a900473ffffffffffffffffffffffffffffffffffffffff1673ffffffffffffffffffffffffffffffffffffffff1673ffffffffffffffffffffffffffffffffffffffff16815260200190815260200160002060007f444149000000000000000000000000000000000000000000000000000000000081526020019081526020016000205461278090919063ffffffff16565b60026000878781548110610db157610db06130f1565b5b906000526020600020906007020160010160009054906101000a900473ffffffffffffffffffffffffffffffffffffffff1673ffffffffffffffffffffffffffffffffffffffff1673ffffffffffffffffffffffffffffffffffffffff16815260200190815260200160002060007f44414900000000000000000000000000000000000000000000000000000000008152602001908152602001600020819055505b60006001811115610e6757610e66612909565b5b886001811115610e7a57610e79612909565b5b0361144157610eb6858581548110610e9557610e946130f1565b5b906000526020600020906007020160050154826127ac90919063ffffffff16565b600260003373ffffffffffffffffffffffffffffffffffffffff1673ffffffffffffffffffffffffffffffffffffffff16815260200190815260200160002060007f44414900000000000000000000000000000000000000000000000000000000008152602001908152602001600020541015610f68576040517f08c379a0000000000000000000000000000000000000000000000000000000008152600401610f5f906131bf565b60405180910390fd5b610fcb81600260003373ffffffffffffffffffffffffffffffffffffffff1673ffffffffffffffffffffffffffffffffffffffff16815260200190815260200160002060008d81526020019081526020016000205461279690919063ffffffff16565b600260003373ffffffffffffffffffffffffffffffffffffffff1673ffffffffffffffffffffffffffffffffffffffff16815260200190815260200160002060008c8152602001908152602001600020819055506110d8611059868681548110611038576110376130f1565b5b906000526020600020906007020160050154836127ac90919063ffffffff16565b600260003373ffffffffffffffffffffffffffffffffffffffff1673ffffffffffffffffffffffffffffffffffffffff16815260200190815260200160002060007f444149000000000000000000000000000000000000000000000000000000000081526020019081526020016000205461278090919063ffffffff16565b600260003373ffffffffffffffffffffffffffffffffffffffff1673ffffffffffffffffffffffffffffffffffffffff16815260200190815260200160002060007f44414900000000000000000000000000000000000000000000000000000000008152602001908152602001600020819055506111f38160026000888881548110611167576111666130f1565b5b906000526020600020906007020160010160009054906101000a900473ffffffffffffffffffffffffffffffffffffffff1673ffffffffffffffffffffffffffffffffffffffff1673ffffffffffffffffffffffffffffffffffffffff16815260200190815260200160002060008d81526020019081526020016000205461278090919063ffffffff16565b6002600087878154811061120a576112096130f1565b5b906000526020600020906007020160010160009054906101000a900473ffffffffffffffffffffffffffffffffffffffff1673ffffffffffffffffffffffffffffffffffffffff1673ffffffffffffffffffffffffffffffffffffffff16815260200190815260200160002060008c8152602001908152602001600020819055506113886112c58686815481106112a4576112a36130f1565b5b906000526020600020906007020160050154836127ac90919063ffffffff16565b600260008888815481106112dc576112db6130f1565b5b906000526020600020906007020160010160009054906101000a900473ffffffffffffffffffffffffffffffffffffffff1673ffffffffffffffffffffffffffffffffffffffff1673ffffffffffffffffffffffffffffffffffffffff16815260200190815260200160002060007f444149000000000000000000000000000000000000000000000000000000000081526020019081526020016000205461279690919063ffffffff16565b6002600087878154811061139f5761139e6130f1565b5b906000526020600020906007020160010160009054906101000a900473ffffffffffffffffffffffffffffffffffffffff1673ffffffffffffffffffffffffffffffffffffffff1673ffffffffffffffffffffffffffffffffffffffff16815260200190815260200160002060007f44414900000000000000000000000000000000000000000000000000000000008152602001908152602001600020819055505b600660008154809291906114549061320e565b919050555083806114649061320e565b9450505050610755565b600091505b8280549050821080156114cd5750828281548110611494576114936130f1565b5b9060005260206000209060070201600301548383815481106114b9576114b86130f1565b5b906000526020600020906007020160040154145b156116dd5760008290505b600184805490506114e99190613256565b81101561163457836001826114fe919061328a565b8154811061150f5761150e6130f1565b5b90600052602060002090600702018482815481106115305761152f6130f1565b5b9060005260206000209060070201600082015481600001556001820160009054906101000a900473ffffffffffffffffffffffffffffffffffffffff168160010160006101000a81548173ffffffffffffffffffffffffffffffffffffffff021916908373ffffffffffffffffffffffffffffffffffffffff1602179055506001820160149054906101000a900460ff168160010160146101000a81548160ff021916908360018111156115e7576115e6612909565b5b02179055506002820154816002015560038201548160030155600482015481600401556005820154816005015560068201548160060155905050808061162c9061320e565b9150506114d8565b5082805480611646576116456132e0565b5b60019003818190600052602060002090600702016000808201600090556001820160006101000a81549073ffffffffffffffffffffffffffffffffffffffff02191690556001820160146101000a81549060ff0219169055600282016000905560038201600090556004820160009055600582016000905560068201600090555050905581806116d59061320e565b925050611473565b5050505050505050565b60065481565b60006020528060005260406000206000915090508060000154908060010160009054906101000a900473ffffffffffffffffffffffffffffffffffffffff16905082565b600460009054906101000a900473ffffffffffffffffffffffffffffffffffffffff1673ffffffffffffffffffffffffffffffffffffffff163373ffffffffffffffffffffffffffffffffffffffff16146117c1576040517f08c379a00000000000000000000000000000000000000000000000000000000081526004016117b89061335b565b60405180910390fd5b60405180604001604052808381526020018273ffffffffffffffffffffffffffffffffffffffff168152506000808481526020019081526020016000206000820151816000015560208201518160010160006101000a81548173ffffffffffffffffffffffffffffffffffffffff021916908373ffffffffffffffffffffffffffffffffffffffff16021790555090505060018290806001815401808255809150506001900390600052602060002001600090919091909150555050565b6001818154811061188f57600080fd5b906000526020600020016000915090505481565b80600073ffffffffffffffffffffffffffffffffffffffff1660008083815260200190815260200160002060010160009054906101000a900473ffffffffffffffffffffffffffffffffffffffff1673ffffffffffffffffffffffffffffffffffffffff1603611948576040517f08c379a000000000000000000000000000000000000000000000000000000000815260040161193f90612ff9565b60405180910390fd5b82600260003373ffffffffffffffffffffffffffffffffffffffff1673ffffffffffffffffffffffffffffffffffffffff16815260200190815260200160002060008481526020019081526020016000205410156119db576040517f08c379a00000000000000000000000000000000000000000000000000000000081526004016119d2906133c7565b60405180910390fd5b611a3e83600260003373ffffffffffffffffffffffffffffffffffffffff1673ffffffffffffffffffffffffffffffffffffffff16815260200190815260200160002060008581526020019081526020016000205461278090919063ffffffff16565b600260003373ffffffffffffffffffffffffffffffffffffffff1673ffffffffffffffffffffffffffffffffffffffff16815260200190815260200160002060008481526020019081526020016000208190555060008083815260200190815260200160002060010160009054906101000a900473ffffffffffffffffffffffffffffffffffffffff1673ffffffffffffffffffffffffffffffffffffffff1663a9059cbb33856040518363ffffffff1660e01b8152600401611b029291906133e7565b6020604051808303816000875af1158015611b21573d6000803e3d6000fd5b505050506040513d601f19601f82011682018060405250810190611b459190613448565b50505050565b6060600060018054905067ffffffffffffffff811115611b6e57611b6d613475565b5b604051908082528060200260200182016040528015611ba757816020015b611b946127c2565b815260200190600190039081611b8c5790505b50905060005b600180549050811015611c9c57604051806040016040528060008060018581548110611bdc57611bdb6130f1565b5b9060005260206000200154815260200190815260200160002060000154815260200160008060018581548110611c1557611c146130f1565b5b9060005260206000200154815260200190815260200160002060010160009054906101000a900473ffffffffffffffffffffffffffffffffffffffff1673ffffffffffffffffffffffffffffffffffffffff16815250828281518110611c7e57611c7d6130f1565b5b60200260200101819052508080611c949061320e565b915050611bad565b508091505090565b80600073ffffffffffffffffffffffffffffffffffffffff1660008083815260200190815260200160002060010160009054906101000a900473ffffffffffffffffffffffffffffffffffffffff1673ffffffffffffffffffffffffffffffffffffffff1603611d49576040517f08c379a0000000000000000000000000000000000000000000000000000000008152600401611d4090612ff9565b60405180910390fd5b60008083815260200190815260200160002060010160009054906101000a900473ffffffffffffffffffffffffffffffffffffffff1673ffffffffffffffffffffffffffffffffffffffff166323b872dd3330866040518463ffffffff1660e01b8152600401611dbb939291906134a4565b6020604051808303816000875af1158015611dda573d6000803e3d6000fd5b505050506040513d601f19601f82011682018060405250810190611dfe9190613448565b50611e6283600260003373ffffffffffffffffffffffffffffffffffffffff1673ffffffffffffffffffffffffffffffffffffffff16815260200190815260200160002060008581526020019081526020016000205461279690919063ffffffff16565b600260003373ffffffffffffffffffffffffffffffffffffffff1673ffffffffffffffffffffffffffffffffffffffff168152602001908152602001600020600084815260200190815260200160002081905550505050565b83600073ffffffffffffffffffffffffffffffffffffffff1660008083815260200190815260200160002060010160009054906101000a900473ffffffffffffffffffffffffffffffffffffffff1673ffffffffffffffffffffffffffffffffffffffff1603611f60576040517f08c379a0000000000000000000000000000000000000000000000000000000008152600401611f5790612ff9565b60405180910390fd5b847f44414900000000000000000000000000000000000000000000000000000000008103611fc3576040517f08c379a0000000000000000000000000000000000000000000000000000000008152600401611fba90613065565b60405180910390fd5b600180811115611fd657611fd5612909565b5b836001811115611fe957611fe8612909565b5b036120865784600260003373ffffffffffffffffffffffffffffffffffffffff1673ffffffffffffffffffffffffffffffffffffffff1681526020019081526020016000206000888152602001908152602001600020541015612081576040517f08c379a0000000000000000000000000000000000000000000000000000000008152600401612078906130d1565b60405180910390fd5b61214c565b61209984866127ac90919063ffffffff16565b600260003373ffffffffffffffffffffffffffffffffffffffff1673ffffffffffffffffffffffffffffffffffffffff16815260200190815260200160002060007f4441490000000000000000000000000000000000000000000000000000000000815260200190815260200160002054101561214b576040517f08c379a0000000000000000000000000000000000000000000000000000000008152600401612142906131bf565b60405180910390fd5b5b600060036000888152602001908152602001600020600085600181111561217657612175612909565b5b815260200190815260200160002090508060405180610100016040528060055481526020013373ffffffffffffffffffffffffffffffffffffffff1681526020018660018111156121ca576121c9612909565b5b8152602001898152602001888152602001600081526020018781526020014281525090806001815401808255809150506001900390600052602060002090600702016000909190919091506000820151816000015560208201518160010160006101000a81548173ffffffffffffffffffffffffffffffffffffffff021916908373ffffffffffffffffffffffffffffffffffffffff16021790555060408201518160010160146101000a81548160ff0219169083600181111561229157612290612909565b5b0217905550606082015181600201556080820151816003015560a0820151816004015560c0820151816005015560e0820151816006015550506000808280549050116122de5760006122f0565b600182805490506122ef9190613256565b5b90505b600081111561273857600060018111156123105761230f612909565b5b85600181111561232357612322612909565b5b148015612383575081818154811061233e5761233d6130f1565b5b9060005260206000209060070201600501548260018361235e9190613256565b8154811061236f5761236e6130f1565b5b906000526020600020906007020160050154115b6127385760018081111561239a57612399612909565b5b8560018111156123ad576123ac612909565b5b14801561240d57508181815481106123c8576123c76130f1565b5b906000526020600020906007020160050154826001836123e89190613256565b815481106123f9576123f86130f1565b5b906000526020600020906007020160050154105b612738576000826001836124219190613256565b81548110612432576124316130f1565b5b906000526020600020906007020160405180610100016040529081600082015481526020016001820160009054906101000a900473ffffffffffffffffffffffffffffffffffffffff1673ffffffffffffffffffffffffffffffffffffffff1673ffffffffffffffffffffffffffffffffffffffff1681526020016001820160149054906101000a900460ff1660018111156124d1576124d0612909565b5b60018111156124e3576124e2612909565b5b815260200160028201548152602001600382015481526020016004820154815260200160058201548152602001600682015481525050905082828154811061252e5761252d6130f1565b5b90600052602060002090600702018360018461254a9190613256565b8154811061255b5761255a6130f1565b5b9060005260206000209060070201600082015481600001556001820160009054906101000a900473ffffffffffffffffffffffffffffffffffffffff168160010160006101000a81548173ffffffffffffffffffffffffffffffffffffffff021916908373ffffffffffffffffffffffffffffffffffffffff1602179055506001820160149054906101000a900460ff168160010160146101000a81548160ff0219169083600181111561261257612611612909565b5b02179055506002820154816002015560038201548160030155600482015481600401556005820154816005015560068201548160060155905050808383815481106126605761265f6130f1565b5b90600052602060002090600702016000820151816000015560208201518160010160006101000a81548173ffffffffffffffffffffffffffffffffffffffff021916908373ffffffffffffffffffffffffffffffffffffffff16021790555060408201518160010160146101000a81548160ff021916908360018111156126ea576126e9612909565b5b0217905550606082015181600201556080820151816003015560a0820151816004015560c0820151816005015560e08201518160060155905050818061272f906134db565b925050506122f3565b6005600081548092919061274b9061320e565b91905055505050505050505050565b600460009054906101000a900473ffffffffffffffffffffffffffffffffffffffff1681565b6000818361278e9190613256565b905092915050565b600081836127a4919061328a565b905092915050565b600081836127ba9190613504565b905092915050565b604051806040016040528060008019168152602001600073ffffffffffffffffffffffffffffffffffffffff1681525090565b600080fd5b6000819050919050565b61280d816127fa565b811461281857600080fd5b50565b60008135905061282a81612804565b92915050565b6000819050919050565b61284381612830565b811461284e57600080fd5b50565b6000813590506128608161283a565b92915050565b60008060006060848603121561287f5761287e6127f5565b5b600061288d8682870161281b565b935050602061289e86828701612851565b92505060406128af86828701612851565b9150509250925092565b6128c281612830565b82525050565b600073ffffffffffffffffffffffffffffffffffffffff82169050919050565b60006128f3826128c8565b9050919050565b612903816128e8565b82525050565b7f4e487b7100000000000000000000000000000000000000000000000000000000600052602160045260246000fd5b6002811061294957612948612909565b5b50565b600081905061295a82612938565b919050565b600061296a8261294c565b9050919050565b61297a8161295f565b82525050565b612989816127fa565b82525050565b6000610100820190506129a5600083018b6128b9565b6129b2602083018a6128fa565b6129bf6040830189612971565b6129cc6060830188612980565b6129d960808301876128b9565b6129e660a08301866128b9565b6129f360c08301856128b9565b612a0060e08301846128b9565b9998505050505050505050565b6000602082019050612a2260008301846128b9565b92915050565b60028110612a3557600080fd5b50565b600081359050612a4781612a28565b92915050565b60008060408385031215612a6457612a636127f5565b5b6000612a728582860161281b565b9250506020612a8385828601612a38565b9150509250929050565b600081519050919050565b600082825260208201905092915050565b6000819050602082019050919050565b612ac281612830565b82525050565b612ad1816128e8565b82525050565b612ae08161295f565b82525050565b612aef816127fa565b82525050565b61010082016000820151612b0c6000850182612ab9565b506020820151612b1f6020850182612ac8565b506040820151612b326040850182612ad7565b506060820151612b456060850182612ae6565b506080820151612b586080850182612ab9565b5060a0820151612b6b60a0850182612ab9565b5060c0820151612b7e60c0850182612ab9565b5060e0820151612b9160e0850182612ab9565b50505050565b6000612ba38383612af5565b6101008301905092915050565b6000602082019050919050565b6000612bc882612a8d565b612bd28185612a98565b9350612bdd83612aa9565b8060005b83811015612c0e578151612bf58882612b97565b9750612c0083612bb0565b925050600181019050612be1565b5085935050505092915050565b60006020820190508181036000830152612c358184612bbd565b905092915050565b612c46816128e8565b8114612c5157600080fd5b50565b600081359050612c6381612c3d565b92915050565b60008060408385031215612c8057612c7f6127f5565b5b6000612c8e85828601612c54565b9250506020612c9f8582860161281b565b9150509250929050565b600080600060608486031215612cc257612cc16127f5565b5b6000612cd08682870161281b565b9350506020612ce186828701612851565b9250506040612cf286828701612a38565b9150509250925092565b600060208284031215612d1257612d116127f5565b5b6000612d208482850161281b565b91505092915050565b6000604082019050612d3e6000830185612980565b612d4b60208301846128fa565b9392505050565b60008060408385031215612d6957612d686127f5565b5b6000612d778582860161281b565b9250506020612d8885828601612c54565b9150509250929050565b600060208284031215612da857612da76127f5565b5b6000612db684828501612851565b91505092915050565b6000602082019050612dd46000830184612980565b92915050565b60008060408385031215612df157612df06127f5565b5b6000612dff85828601612851565b9250506020612e108582860161281b565b9150509250929050565b600081519050919050565b600082825260208201905092915050565b6000819050602082019050919050565b604082016000820151612e5c6000850182612ae6565b506020820151612e6f6020850182612ac8565b50505050565b6000612e818383612e46565b60408301905092915050565b6000602082019050919050565b6000612ea582612e1a565b612eaf8185612e25565b9350612eba83612e36565b8060005b83811015612eeb578151612ed28882612e75565b9750612edd83612e8d565b925050600181019050612ebe565b5085935050505092915050565b60006020820190508181036000830152612f128184612e9a565b905092915050565b60008060008060808587031215612f3457612f336127f5565b5b6000612f428782880161281b565b9450506020612f5387828801612851565b9350506040612f6487828801612851565b9250506060612f7587828801612a38565b91505092959194509250565b6000602082019050612f9660008301846128fa565b92915050565b600082825260208201905092915050565b7f7468697320746f6b656e20646f6573206e6f7420657869737400000000000000600082015250565b6000612fe3601983612f9c565b9150612fee82612fad565b602082019050919050565b6000602082019050818103600083015261301281612fd6565b9050919050565b7f63616e6e6f742074726164652044414900000000000000000000000000000000600082015250565b600061304f601083612f9c565b915061305a82613019565b602082019050919050565b6000602082019050818103600083015261307e81613042565b9050919050565b7f746f6b656e2062616c616e636520746f6f206c6f770000000000000000000000600082015250565b60006130bb601583612f9c565b91506130c682613085565b602082019050919050565b600060208201905081810360008301526130ea816130ae565b9050919050565b7f4e487b7100000000000000000000000000000000000000000000000000000000600052603260045260246000fd5b600060a08201905061313560008301886128b9565b61314260208301876128b9565b61314f60408301866128b9565b61315c60608301856128b9565b61316960808301846128b9565b9695505050505050565b7f6461692062616c616e636520746f6f206c6f7700000000000000000000000000600082015250565b60006131a9601383612f9c565b91506131b482613173565b602082019050919050565b600060208201905081810360008301526131d88161319c565b9050919050565b7f4e487b7100000000000000000000000000000000000000000000000000000000600052601160045260246000fd5b600061321982612830565b91507fffffffffffffffffffffffffffffffffffffffffffffffffffffffffffffffff820361324b5761324a6131df565b5b600182019050919050565b600061326182612830565b915061326c83612830565b92508282101561327f5761327e6131df565b5b828203905092915050565b600061329582612830565b91506132a083612830565b9250827fffffffffffffffffffffffffffffffffffffffffffffffffffffffffffffffff038211156132d5576132d46131df565b5b828201905092915050565b7f4e487b7100000000000000000000000000000000000000000000000000000000600052603160045260246000fd5b7f6f6e6c792061646d696e00000000000000000000000000000000000000000000600082015250565b6000613345600a83612f9c565b91506133508261330f565b602082019050919050565b6000602082019050818103600083015261337481613338565b9050919050565b7f62616c616e636520746f6f206c6f770000000000000000000000000000000000600082015250565b60006133b1600f83612f9c565b91506133bc8261337b565b602082019050919050565b600060208201905081810360008301526133e0816133a4565b9050919050565b60006040820190506133fc60008301856128fa565b61340960208301846128b9565b9392505050565b60008115159050919050565b61342581613410565b811461343057600080fd5b50565b6000815190506134428161341c565b92915050565b60006020828403121561345e5761345d6127f5565b5b600061346c84828501613433565b91505092915050565b7f4e487b7100000000000000000000000000000000000000000000000000000000600052604160045260246000fd5b60006060820190506134b960008301866128fa565b6134c660208301856128fa565b6134d360408301846128b9565b949350505050565b60006134e682612830565b9150600082036134f9576134f86131df565b5b600182039050919050565b600061350f82612830565b915061351a83612830565b9250817fffffffffffffffffffffffffffffffffffffffffffffffffffffffffffffffff0483118215151615613553576135526131df565b5b82820290509291505056fea264697066735822122024cad943284612f9135e7529be54cc4a0136d2462e52a48b8bd0e04c352516ee64736f6c634300080e0033",
  "immutableReferences": {},
  "source": "//SPDX-License-Identifier: UNLICENSED\npragma solidity 0.8.14;\n\nimport '@openzeppelin/contracts/token/ERC20/IERC20.sol';\nimport '@openzeppelin/contracts/utils/math/SafeMath.sol';\n\ncontract Dex {\n\n    using SafeMath for uint;\n       \n    enum Side {\n        BUY,\n        SELL\n    }\n    \n    struct Token {\n        bytes32 ticker;\n        address tokenAddress;\n    }\n    \n    struct Order {\n        uint id;\n        address trader;\n        Side side;\n        bytes32 ticker;\n        uint amount;\n        uint filled;\n        uint price;\n        uint date;\n    }\n    \n    mapping(bytes32 => Token) public tokens;\n    bytes32[] public tokenList;\n    mapping(address => mapping(bytes32 => uint)) public traderBalances;\n    mapping(bytes32 => mapping(uint => Order[])) public orderBook;\n    address public admin;\n    uint public nextOrderId;\n    uint public nextTradeId;\n    bytes32 constant DAI = bytes32('DAI');\n    \n    event NewTrade(\n        uint tradeId,\n        uint orderId,\n        bytes32 indexed ticker,\n        address indexed trader1,\n        address indexed trader2,\n        uint amount,\n        uint price,\n        uint date\n    );\n    \n    constructor(){\n        admin = msg.sender;\n    }\n\n    function getOrders(\n      bytes32 ticker, \n      Side side) \n      external \n      view\n      returns(Order[] memory) {\n      return orderBook[ticker][uint(side)];\n    }\n\n    function getTokens() \n      external \n      view \n      returns(Token[] memory) {\n      Token[] memory _tokens = new Token[](tokenList.length);\n      for (uint i = 0; i < tokenList.length; i++) {\n        _tokens[i] = Token(\n          tokens[tokenList[i]].ticker,\n          tokens[tokenList[i]].tokenAddress\n        );\n      }\n      return _tokens;\n    }\n    \n    function addToken(\n        bytes32 ticker,\n        address tokenAddress)\n        onlyAdmin()\n        external {\n        tokens[ticker] = Token(ticker, tokenAddress);\n        tokenList.push(ticker);\n    }\n    \n    function deposit(\n        uint amount,\n        bytes32 ticker)\n        tokenExist(ticker)\n        external {\n        IERC20(tokens[ticker].tokenAddress).transferFrom(\n            msg.sender,\n            address(this),\n            amount\n        );\n        traderBalances[msg.sender][ticker] = traderBalances[msg.sender][ticker].add(amount);\n    }\n    \n    function withdraw(\n        uint amount,\n        bytes32 ticker)\n        tokenExist(ticker)\n        external {\n        require(\n            traderBalances[msg.sender][ticker] >= amount,\n            'balance too low'\n        ); \n        traderBalances[msg.sender][ticker] = traderBalances[msg.sender][ticker].sub(amount);\n        IERC20(tokens[ticker].tokenAddress).transfer(msg.sender, amount);\n    }\n    \n    function createLimitOrder(\n        bytes32 ticker,\n        uint amount,\n        uint price,\n        Side side)\n        tokenExist(ticker)\n        tokenIsNotDai(ticker)\n        external {\n        if(side == Side.SELL) {\n            require(\n                traderBalances[msg.sender][ticker] >= amount, \n                'token balance too low'\n            );\n        } else {\n            require(\n                traderBalances[msg.sender][DAI] >= amount.mul(price),\n                'dai balance too low'\n            );\n        }\n        Order[] storage orders = orderBook[ticker][uint(side)];\n        orders.push(Order(\n            nextOrderId,\n            msg.sender,\n            side,\n            ticker,\n            amount,\n            0,\n            price,\n            block.timestamp \n        ));\n        \n        uint i = orders.length > 0 ? orders.length - 1 : 0;\n        while(i > 0) {\n            if(side == Side.BUY && orders[i - 1].price > orders[i].price) {\n                break;   \n            }\n            if(side == Side.SELL && orders[i - 1].price < orders[i].price) {\n                break;   \n            }\n            Order memory order = orders[i - 1];\n            orders[i - 1] = orders[i];\n            orders[i] = order;\n            i--;\n        }\n        nextOrderId++;\n    }\n    \n    function createMarketOrder(\n        bytes32 ticker,\n        uint amount,\n        Side side)\n        tokenExist(ticker)\n        tokenIsNotDai(ticker)\n        external {\n        if(side == Side.SELL) {\n            require(\n                traderBalances[msg.sender][ticker] >= amount, \n                'token balance too low'\n            );\n        }\n        Order[] storage orders = orderBook[ticker][uint(side == Side.BUY ? Side.SELL : Side.BUY)];\n        uint i;\n        uint remaining = amount;\n        \n        while(i < orders.length && remaining > 0) {\n            uint available = orders[i].amount.sub(orders[i].filled);\n            uint matched = (remaining > available) ? available : remaining;\n            remaining = remaining.sub(matched);\n            orders[i].filled = orders[i].filled.add(matched);\n            emit NewTrade(\n                nextTradeId,\n                orders[i].id,\n                ticker,\n                orders[i].trader,\n                msg.sender,\n                matched,\n                orders[i].price,\n                block.timestamp\n            );\n            if(side == Side.SELL) {\n                traderBalances[msg.sender][ticker] = traderBalances[msg.sender][ticker].sub(matched);\n                traderBalances[msg.sender][DAI] = traderBalances[msg.sender][DAI].add(matched.mul(orders[i].price));\n                traderBalances[orders[i].trader][ticker] = traderBalances[orders[i].trader][ticker].add(matched);\n                traderBalances[orders[i].trader][DAI] = traderBalances[orders[i].trader][DAI].sub(matched.mul(orders[i].price));\n            }\n            if(side == Side.BUY) {\n                require(\n                    traderBalances[msg.sender][DAI] >= matched.mul(orders[i].price),\n                    'dai balance too low'\n                );\n                traderBalances[msg.sender][ticker] = traderBalances[msg.sender][ticker].add(matched);\n                traderBalances[msg.sender][DAI] = traderBalances[msg.sender][DAI].sub(matched.mul(orders[i].price));\n                traderBalances[orders[i].trader][ticker] = traderBalances[orders[i].trader][ticker].sub(matched);\n                traderBalances[orders[i].trader][DAI] = traderBalances[orders[i].trader][DAI].add(matched.mul(orders[i].price));\n            }\n            nextTradeId++;\n            i++;\n        }\n        \n        i = 0;\n        while(i < orders.length && orders[i].filled == orders[i].amount) {\n            for(uint j = i; j < orders.length - 1; j++ ) {\n                orders[j] = orders[j + 1];\n            }\n            orders.pop();\n            i++;\n        }\n    }\n   \n    modifier tokenIsNotDai(bytes32 ticker) {\n       require(ticker != DAI, 'cannot trade DAI');\n       _;\n    }     \n    \n    modifier tokenExist(bytes32 ticker) {\n        require(\n            tokens[ticker].tokenAddress != address(0),\n            'this token does not exist'\n        );\n        _;\n    }\n    \n    modifier onlyAdmin() {\n        require(msg.sender == admin, 'only admin');\n        _;\n    }\n}\n",
  "sourcePath": "D:\\Viktoriya\\Programming\\Blockchain\\dex-erc20\\contracts\\Dex.sol",
  "compiler": {
    "name": "solc",
    "version": "0.8.14+commit.80d49f37.Emscripten.clang"
  },
  "schemaVersion": "3.4.7",
  "updatedAt": "2022-05-30T21:10:30.588Z",
  "networkType": "ethereum",
  "devdoc": {
    "kind": "dev",
    "methods": {},
    "version": 1
  },
  "userdoc": {
    "kind": "user",
    "methods": {},
    "version": 1
  }
}